:100000000C945E000C9486000C9486000C94860080
:100010000C9486000C9486000C9486000C94860048
:100020000C9486000C9486000C9486000C94860038
:100030000C9486000C9486000C9486000C94860028
:100040000C94BC020C9486000C9486000C948600E0
:100050000C9486000C9486000C9486000C94860008
:100060000C9486000C9486000000000024002700F9
:100070002A0000000000250028002B0004040404CE
:100080000404040402020202020203030303030342
:10009000010204081020408001020408102001021F
:1000A00004081020000000080002010000030407FB
:1000B00000000000000000003205950511241FBE5D
:1000C000CFEFD8E0DEBFCDBF12E0A0E0B1E0E4E9C1
:1000D000F1E102C005900D92A630B107D9F722E0F8
:1000E000A6E0B2E001C01D92A832B207E1F710E02D
:1000F000CDE5D0E004C02197FE010E948A07CC35EF
:10010000D107C9F70E9406030C94BD080C940000A7
:1001100090E0FC01EC55FF4F2491FC01E057FF4FAC
:100120003491FC01E458FF4FE491EE23B9F122230E
:1001300039F1233091F038F42130A9F0223001F563
:1001400084B58F7D12C0273091F02830A1F0243083
:10015000B9F4809180008F7D03C0809180008F77FB
:10016000809380000DC084B58F7784BD09C08091D5
:10017000B0008F7703C08091B0008F7D8093B00076
:10018000F0E0EE0FFF1FEE58FF4FA591B4918FB72F
:10019000F894EC9130953E233C938FBF08958F9255
:1001A0009F92AF92BF92CF92DF92EF92FF922091F7
:1001B0001102309112028217930708F052C04B01CE
:1001C000AA24BB24E82DC52ED62EE72EFF24FC2D15
:1001D000342F20911602222361F0829E40011124C7
:1001E000E92DC29E60011124FD2D429FD0011124F2
:1001F0003B2FF0901C02E0901902A0911702B091E1
:100200001802FE1008C0AC01440F551F840F951F43
:100210008A0F9B1F14C0880F991F880F991F8A0F80
:100220009B1F472F552766277727DC01AF0DB11D90
:10023000222321F0429FA0011124452F4C932091AD
:100240001902DC01A20FB11DEC9320911A02DC010E
:10025000A20FB11DFC9320911B02FC01E20FF11DC6
:100260003083FF90EF90DF90CF90BF90AF909F9042
:100270008F900895CF93DF9390E0FC01E057FF4FFC
:100280002491FC01E458FF4F8491882361F190E0B0
:10029000880F991FFC01E859FF4FC591D491FC01CB
:1002A000EE58FF4FA591B491611109C09FB7F89422
:1002B0008881209582238883EC912E230BC06230A5
:1002C00061F49FB7F8943881822F809583238883C7
:1002D000EC912E2B2C939FBF06C08FB7F894E8812A
:1002E0002E2B28838FBFDF91CF9108953FB7F894CD
:1002F00080910B0290910C02A0910D02B0910E0220
:1003000026B5A89B05C02F3F19F00196A11DB11D70
:100310003FBFBA2FA92F982F8827820F911DA11DAB
:10032000B11DBC01CD0142E0660F771F881F991FE8
:100330004A95D1F708950F931F93CF93DF93CDB7CD
:10034000DEB729970FB6F894DEBF0FBECDBF809100
:10035000170290911802892B09F4A2C00E9476011D
:1003600000911D0210911E0220911F023091200267
:10037000DC01CB01801B910BA20BB30B8C329140A3
:10038000A105B10558F3F8948091130290911402DD
:100390009A838983E0911702F0911802DF01119688
:1003A0008081898790910F02E0912102F0912202D1
:1003B00080912302992309F42EC09081982B98876D
:1003C0009081809589238F838F818C8388E08B83B4
:1003D00058856F8149853B812C8189819A81508321
:1003E00047FD252F3A952083262F39F0441F00C062
:1003F00000006083000000C0F2CF38E04D916083C0
:100400000000019761F7F0932202E09321024987EF
:100410003B832C8338C09081982B9887908180955E
:1004200089238F838F818E8388E08D8358856F81A8
:1004300049853D812E8189819A81508347FD252FF1
:1004400000C000C0208300C000C000C000C000C0C9
:1004500060830000262F3A9541F0441F000000C041
:1004600000C000C000C000C0E8CF38E04D9100C01F
:10047000608300C0019709F7F0932202E093210204
:1004800049873D832E839A83898378940E947601DD
:1004900060931D0270931E0280931F0290932002AE
:1004A00029960FB6F894DEBF0FBECDBFDF91CF9176
:1004B0001F910F9108958F929F92AF92BF92CF920A
:1004C000DF92EF92FF926B017C010E9476014B015B
:1004D0005C01C114D104E104F104F1F00E94760141
:1004E000DC01CB0188199909AA09BB09883E934010
:1004F000A105B10570F321E0C21AD108E108F108A5
:1005000088EE880E83E0981EA11CB11CC114D10492
:10051000E104F10419F7DDCFFF90EF90DF90CF9069
:10052000BF90AF909F908F900895CF92DF92EF92FF
:10053000FF92CF93DF936B017C01C0E0D0E080910C
:10054000110290911202C817D90778F4B701A601D9
:10055000CE010E94CF000E949B016AE070E080E023
:1005600090E00E945B022196EACFDF91CF91FF904D
:10057000EF90DF90CF9008951F920F920FB60F92D9
:1005800011242F933F938F939F93AF93BF938091A9
:10059000070290910802A0910902B0910A023091DD
:1005A000060223E0230F2D3720F40196A11DB11D73
:1005B00005C026E8230F0296A11DB11D2093060257
:1005C0008093070290930802A0930902B0930A0255
:1005D00080910B0290910C02A0910D02B0910E023D
:1005E0000196A11DB11D80930B0290930C02A09364
:1005F0000D02B0930E02BF91AF919F918F913F91E9
:100600002F910F900FBE0F901F901895CF93DF93EF
:10061000CDB7DEB72C970FB6F894DEBF0FBECDBFB7
:10062000789484B5826084BD84B5816084BD85B5CD
:10063000826085BD85B5816085BD80916E008160D9
:1006400080936E001092810080918100826080937F
:100650008100809181008160809381008091800081
:100660008160809380008091B10084608093B100AC
:100670008091B00081608093B00080917A008460A6
:1006800080937A0080917A00826080937A008091D2
:100690007A00816080937A0080917A0080688093EC
:1006A0007A001092C10060911602633321F120910B
:1006B000170230911802615031F070E08FEF92E331
:1006C0000E94760702C060E070E0F90140911302D9
:1006D00050911402CF01821B930B8417950740F4AD
:1006E0004081469FC001479F900D11249193EECF0A
:1006F00083E3809316028091150287FD07C061E0B5
:100700000E943A01809115020E94880081E0809346
:1007100010020E949B0160E070E084E690E00E947D
:10072000950260E07FEF80E090E00E9495026FEF1D
:1007300070E080E090E00E94950264E674E684E652
:1007400090E00E94950226E031E03C832B83790102
:1007500000E010E080911102909112020817190731
:1007600078F4D7014C9150E060E070E0742F662778
:1007700055274427C8010E94CF000F5F1F4FEACFC3
:1007800065E070E080E090E00E945B020E949B01C7
:10079000BFEFEB1AFB0AEAE6EE16E1E0FE06C1F651
:1007A00089EC90E000E010E0FC0131976F019F01BF
:1007B0002A5F3E4F79018091110290911202081731
:1007C000190778F4D7014C9150E060E070E0742F85
:1007D000662755274427C8010E94CF000F5F1F4F8F
:1007E000EACF65E070E080E090E00E945B020E944A
:1007F0009B01C6010097B1F61C861B8600E010E045
:10080000212C312C1E821D821A8219828B859C8597
:10081000092E000CAA0BBB0B8F839887A987BA8778
:10082000609111027091120229813A8126173707CF
:1008300008F06FC08D819E810E947607620D6476FC
:1008400060956A3A50F46555862F880F860F482EBA
:100850004094512C612C712C0CC06A5A462E440CC9
:10086000460E842D8095512C612C712C320155241B
:100870004424582A6F81788589859A850E94540678
:1008800020E030E048EC52E40E94AA054B015C01F4
:10089000662D70E080E090E00E945406A50194016E
:1008A0000E9409070E941C06C62ED12CE12CF12CB7
:1008B0007601DD24CC24652D70E080E090E00E947C
:1008C0005406A50194010E9409070E941C06D62A1D
:1008D000642D70E080E090E00E945406A501940130
:1008E0000E9409070E941C06D701C601862BAC0195
:1008F000BD0189819A810E94CF00A981BA81119698
:10090000BA83A983ED81FE81EC59FF4FFE83ED830D
:1009100087CF01151105B1F4AB85BC85BD01BB0FB7
:10092000880B990B0E94540620E030E046EC52E41C
:100930000E94A50587FF1DC0EB85FC853196FC87CD
:10094000EB8717C002301105A1F4B101032C000C94
:10095000880B990B0E94540620E030E0A9010E9408
:100960000407181634F42B853C85215031093C8747
:100970002B870E949B0163E070E080E090E00E9482
:100980005B023FEF231A330A84E62816310409F08C
:1009900039CF0F5F1F4F0330110509F031CF64EFDE
:1009A00071E080E090E00E945B0200E010E0809146
:1009B0001102909112020817190780F4AB81BC81D3
:1009C0004C9150E060E070E0742F66275527442773
:1009D000C8010E94CF000F5F1F4FE9CF0E949B010B
:1009E000EB81FC813196FC83EB83EA56F140E9F61A
:1009F00060ED77E080E090E00E945B0225E630E069
:100A000000E010E0C90101976C01DC01AA5FBE4F54
:100A10007D0180911102909112020817190778F454
:100A2000F701408150E060E070E0742F66275527A1
:100A30004427C8010E94CF000F5F1F4FEACF0E94DA
:100A40009B019601CD28E1F664EF71E080E090E033
:100A50000E945B0220E030E0232B09F45CCE0E9470
:100A6000000059CECF93DF9310921002109216021D
:100A700010921D0210921E0210921F02109220026C
:100A800081E080931C028093190210921A0292E076
:100A900090931B0280930F02C0E0D6E0D093140223
:100AA000C093130280E096E00E9490079093180292
:100AB00080931702009769F0FC019E01119221506A
:100AC0003040E1F780E092E09093120280931102AF
:100AD00008C0109214021092130210921202109287
:100AE000110282E08093150280911002882339F070
:100AF00061E082E00E943A0182E00E948800EEE715
:100B0000F0E0E491F0E0EE0FFF1FEE58FF4F85910B
:100B100094919093220280932102E2E9F0E0E49123
:100B2000E0932302DF91CF91089580911702909175
:100B30001802009711F00E9425088091150287FD88
:100B400003C060E00C943A0108950E948F0608F4F7
:100B500081E008950E94BE050C94CA060E94C30657
:100B600058F00E94BC0640F029F45F3F29F00C9435
:100B7000B30651110C94FE060C94B9060E94DB06D4
:100B800068F39923B1F3552391F3951B550BBB27BC
:100B9000AA2762177307840738F09F5F5F4F220F01
:100BA000331F441FAA1FA9F335D00E2E3AF0E0E8F8
:100BB00032D091505040E695001CCAF72BD0FE2F42
:100BC00029D0660F771F881FBB1F261737074807D6
:100BD000AB07B0E809F0BB0B802DBF01FF2793588E
:100BE0005F4F3AF09E3F510578F00C94B3060C9499
:100BF000FE065F3FE4F3983ED4F3869577956795BC
:100C0000B795F7959F5FC9F7880F911D96958795C2
:100C100097F90895E1E0660F771F881FBB1F6217E1
:100C200073078407BA0720F0621B730B840BBA0B9F
:100C3000EE1F88F7E09508950E9423066894B1118D
:100C40000C94FE0608950E94E30688F09F5798F0E2
:100C5000B92F9927B751B0F0E1F0660F771F881FC1
:100C6000991F1AF0BA95C9F714C0B13091F00E94DB
:100C7000FD06B1E008950C94FD06672F782F8827B4
:100C8000B85F39F0B93FCCF3869577956795B39502
:100C9000D9F73EF490958095709561957F4F8F4F71
:100CA0009F4F0895E89409C097FB3EF49095809576
:100CB000709561957F4F8F4F9F4F9923A9F0F92F22
:100CC00096E9BB279395F695879577956795B795A0
:100CD000F111F8CFFAF4BB0F11F460FF1BC06F5F86
:100CE0007F4F8F4F9F4F16C0882311F096E911C098
:100CF000772321F09EE8872F762F05C0662371F0B9
:100D000096E8862F70E060E02AF09A95660F771FCC
:100D1000881FDAF7880F9695879597F90895990FA8
:100D20000008550FAA0BE0E8FEEF16161706E807B5
:100D3000F907C0F012161306E407F50798F0621BD6
:100D4000730B840B950B39F40A2661F0232B242BAB
:100D5000252B21F408950A2609F4A140A6958FEFCA
:100D6000811D811D089597F99F6780E870E060E01C
:100D700008959FEF80EC089500240A941616170634
:100D800018060906089500240A941216130614067C
:100D900005060895092E0394000C11F4882352F0DF
:100DA000BB0F40F4BF2B11F460FF04C06F5F7F4F97
:100DB0008F4F9F4F089557FD9058440F551F59F07E
:100DC0005F3F71F04795880F97FB991F61F09F3F38
:100DD00079F087950895121613061406551FF2CF61
:100DE0004695F1DF08C0161617061806991FF1CFB1
:100DF00086957105610508940895E894BB276627D8
:100E00007727CB0197F908950E948F0608F48FEF9A
:100E100008950E941C070C94CA060E94BC0638F074
:100E20000E94C30620F0952311F00C94B3060C9495
:100E3000B90611240C94FE060E94DB0670F3959F00
:100E4000C1F3950F50E0551F629FF001729FBB27C1
:100E5000F00DB11D639FAA27F00DB11DAA1F649F5D
:100E60006627B00DA11D661F829F2227B00DA11D10
:100E7000621F739FB00DA11D621F839FA00D611D96
:100E8000221F749F3327A00D611D231F849F600DB7
:100E9000211D822F762F6A2F11249F5750409AF0E0
:100EA000F1F088234AF0EE0FFF1FBB1F661F771F6C
:100EB000881F91505040A9F79E3F510580F00C9437
:100EC000B3060C94FE065F3FE4F3983ED4F3869598
:100ED00077956795B795F795E7959F5FC1F7FE2BD7
:100EE000880F911D9695879597F90895AA1BBB1BAE
:100EF00051E107C0AA1FBB1FA617B70710F0A61B1A
:100F0000B70B881F991F5A95A9F780959095BC013A
:100F1000CD010895EE0FFF1F0590F491E02D099487
:100F2000CF93DF938230910510F482E090E0E0915E
:100F30002602F091270220E030E0C0E0D0E03097B8
:100F400011F14081518148175907C0F048175907DE
:100F500061F482819381209719F09B838A832BC04F
:100F6000909327028093260226C02115310519F09F
:100F70004217530718F49A01BE01DF01EF01028006
:100F8000F381E02DDCCF2115310509F1281B390B48
:100F90002430310590F412968D919C911397611530
:100FA000710521F0FB019383828304C09093270293
:100FB00080932602FD01329644C0FD01E20FF31F2B
:100FC00081939193225031092D933C933AC0209103
:100FD000240230912502232B41F42091020130910B
:100FE00003013093250220932402209100013091C7
:100FF00001012115310541F42DB73EB7409104019F
:1010000050910501241B350BE0912402F09125023B
:10101000E217F307A0F42E1B3F0B2817390778F0CF
:10102000AC014E5F5F4F2417350748F04E0F5F1F2E
:1010300050932502409324028193919302C0E0E0F3
:10104000F0E0CF01DF91CF9108950F931F93CF93DD
:10105000DF93009709F48CC0FC013297138212824F
:1010600000912602109127020115110581F42081BB
:101070003181820F931F209124023091250228177D
:10108000390779F5F0932502E093240271C0D80165
:1010900040E050E0AE17BF0750F412962D913C91FE
:1010A0001397AD012115310509F1D901F3CF9D0148
:1010B000DA013383228360817181860F971F821743
:1010C000930769F4EC0128813981260F371F2E5FC1
:1010D0003F4F318320838A819B8193838283452B79
:1010E00029F4F0932702E093260242C01396FC9362
:1010F000EE931297ED01499159919E01240F351FEE
:10110000E217F30771F480819181840F951F029695
:1011100011969C938E938281938113969C938E93C8
:101120001297E0E0F0E0D80112968D919C91139710
:10113000009719F0F8018C01F6CF8D919C919801E0
:101140002E5F3F4F820F931F209124023091250282
:101150002817390769F4309729F410922702109262
:10116000260202C0138212821093250200932402E9
:10117000DF91CF911F910F91089510E0CDE5D0E060
:1011800004C0FE010E948A072196CE35D107C9F717
:04119000F894FFCF01
:1011940000002802800000000000000000000000A1
:1011A400000000000000000000000000000000003B
:1011B400000001010101010101010101010101021C
:1011C40002020202020202030303030303030404F0
:1011D40004040405050505060606060707070708AF
:1011E40008080909090A0A0A0B0B0B0C0C0D0D0D52
:1011F4000E0E0F0F101011111212131314141515D3
:10120400161617181819191A1B1B1C1D1D1E1F2032
:101214002021222323242526272728292A2B2C2D65
:101224002E2F303132323334363738393A3B3C3D65
:101234003E3F40424344454648494A4B4D4E4F5138
:101244005253555657595A5C5D5F606263656668D0
:10125400696B6D6E7072737577787A7C7E7F81832B
:101264008587898A8C8E90929496989A9C9EA0A247
:10127400A4A7A9ABADAFB1B4B6B8BABDBFC1C4C61B
:10128400C8CBCDD0D2D5D7DADCDFE1E4E7E9ECEFA7
:06129400F1F4F7F9FCFF84
:00000001FF
