:100000000C945E000C9486000C9486000C94860080
:100010000C9486000C9486000C9486000C94860048
:100020000C9486000C9486000C9486000C94860038
:100030000C9486000C9486000C9486000C94860028
:100040000C9430010C9486000C9486000C9486006D
:100050000C9486000C9486000C9486000C94860008
:100060000C9486000C9486000000000024002700F9
:100070002A0000000000250028002B0004040404CE
:100080000404040402020202020203030303030342
:10009000010204081020408001020408102001021F
:1000A00004081020000000080002010000030407FB
:1000B0000000000000000000F502580311241FBEDC
:1000C000CFEFD8E0DEBFCDBF21E0A6E0B1E001C0B8
:1000D0001D92A832B207E1F711E0A0E0B1E0E0E53F
:1000E000F9E002C005900D92A630B107D9F710E0F3
:1000F000CDE5D0E004C02197FE010E946803CC3515
:10010000D107C9F70E947A010C949B040C9400005B
:1001100090E0FC01EC55FF4F2491FC01E057FF4FAC
:100120003491FC01E458FF4FE491EE23B9F122230E
:1001300039F1233091F038F42130A9F0223001F563
:1001400084B58F7D12C0273091F02830A1F0243083
:10015000B9F4809180008F7D03C0809180008F77FB
:10016000809380000DC084B58F7784BD09C08091D5
:10017000B0008F7703C08091B0008F7D8093B00076
:10018000F0E0EE0FFF1FEE58FF4FA591B4918FB72F
:10019000F894EC9130953E233C938FBF0895CF9314
:1001A000DF9390E0FC01E057FF4F2491FC01E458FD
:1001B000FF4F8491882361F190E0880F991FFC0123
:1001C000E859FF4FC591D491FC01EE58FF4FA5911E
:1001D000B491611109C09FB7F8948881209582235A
:1001E0008883EC912E230BC0623061F49FB7F894A2
:1001F0003881822F809583238883EC912E2B2C933A
:100200009FBF06C08FB7F894E8812E2B28838FBF3D
:10021000DF91CF9108953FB7F8948091200190919C
:100220002101A0912201B091230126B5A89B05C010
:100230002F3F19F00196A11DB11D3FBFBA2FA92F65
:10024000982F8827820F911DA11DB11DBC01CD01E2
:1002500042E0660F771F881F991F4A95D1F70895CE
:100260001F920F920FB60F9211242F933F938F93EB
:100270009F93AF93BF9380911C0190911D01A0911A
:100280001E01B0911F0130911B0123E0230F2D3778
:1002900020F40196A11DB11D05C026E8230F02968A
:1002A000A11DB11D20931B0180931C0190931D0182
:1002B000A0931E01B0931F01809120019091210114
:1002C000A0912201B09123010196A11DB11D80933F
:1002D000200190932101A0932201B0932301BF91AB
:1002E000AF919F918F913F912F910F900FBE0F90E3
:1002F0001F901895CF93DF93CDB7DEB729970FB630
:10030000F894DEBF0FBECDBF789484B5826084BD03
:1003100084B5816084BD85B5826085BD85B5816009
:1003200085BD80916E00816080936E001092810087
:100330008091810082608093810080918100816042
:100340008093810080918000816080938000809103
:10035000B10084608093B1008091B000816080938F
:10036000B00080917A00846080937A0080917A0056
:10037000826080937A0080917A00816080937A0015
:1003800080917A00806880937A001092C1008091F9
:100390000C0187FD07C061E00E94CF0080910C0135
:1003A0000E94880081E08093070198E0392EE12CBB
:1003B000F12CC12CD12C00E010E08091080190912B
:1003C00009010817190770F580910D0126E98823A6
:1003D00021F0829FC0011124292F309113014091F7
:1003E000100180910E0190910F01341303C08C0D08
:1003F0009D1D06C08E0D9F1DFC01E30FF11D108297
:1004000030911001FC01E30FF11D108230911101B8
:10041000FC01E30FF11D208320911201FC01E20F8A
:10042000F11D108280910E0190910F01892B09F42A
:10043000A0C00E940B0140901401509015016090E3
:10044000160170901701DC01CB0184199509A609EA
:10045000B7098C329140A105B10558F3F894809109
:100460000A0190910B019A838983A0910E01B091AA
:100470000F01FD0131968C91898790910601A09121
:100480001801B091190180911A01992309F42DC026
:100490009C91982B98879C91809589238F838F813D
:1004A0008C833B8258856F8149853B812C81898172
:1004B0009A815C9347FD252F3A952C93262F39F08E
:1004C000441F00C000006C93000000C0F2CF38E071
:1004D00041916C930000019761F7B0931901A093CB
:1004E000180149873B832C8337C09C91982B9887B0
:1004F0009C91809589238F838F818E833D8258853F
:100500006F8149853D812E8189819A815C9347FD68
:10051000252F00C000C02C9300C000C000C000C048
:1005200000C06C930000262F3A9541F0441F000054
:1005300000C000C000C000C000C0E8CF38E041915A
:1005400000C06C9300C0019709F7B0931901A09304
:10055000180149873D832E839A83898378940E946A
:100560000B01609314017093150180931601909311
:1005700017010E940B014B015C0184EF482E5524AA
:100580005394612C712C0E940B01DC01CB01881962
:100590009909AA09BB09883E9340A105B10558F005
:1005A00081E0481A51086108710898EE890E93E0BD
:1005B000991EA11CB11C411451046104710419F766
:1005C0000F5F1F4F83E0C80ED11C94E0E90EF11CB1
:1005D000011522E0120709F0F0CE80E090E0892BAF
:1005E00009F4E5CE0E940000E2CECF93DF93109293
:1005F000070110920D011092140110921501109232
:1006000016011092170181E080931301809310016D
:100610001092110192E09093120180930601C0E0C4
:10062000D6E0D0930B01C0930A0180E096E00E94CF
:100630006E0390930F0180930E01009769F0FC0107
:100640009E01119221503040E1F780E092E09093BA
:1006500009018093080108C010920B0110920A0151
:10066000109209011092080182E080930C018091A0
:100670000701882339F061E082E00E94CF0082E028
:100680000E948800EEE7F0E0E491F0E0EE0FFF1F3B
:10069000EE58FF4F85919491909319018093180122
:1006A000E2E9F0E0E491E0931A01DF91CF9108953F
:1006B00080910E0190910F01009711F00E940304A8
:1006C00080910C0187FD03C060E00C94CF00089579
:1006D000EE0FFF1F0590F491E02D0994CF93DF9367
:1006E0008230910510F482E090E0E0912601F091D3
:1006F000270120E030E0C0E0D0E0309711F14081E8
:10070000518148175907C0F04817590761F4828191
:100710009381209719F09B838A832BC090932701A4
:100720008093260126C02115310519F04217530781
:1007300018F49A01BE01DF01EF010280F381E02D80
:10074000DCCF2115310509F1281B390B2430310587
:1007500090F412968D919C9113976115710521F07B
:10076000FB019383828304C0909327018093260129
:10077000FD01329644C0FD01E20FF31F8193919376
:10078000225031092D933C933AC02091240130919D
:100790002501232B41F42091020130910301309374
:1007A00025012093240120910001309101012115A0
:1007B000310541F42DB73EB7409104015091050138
:1007C000241B350BE0912401F0912501E217F3077A
:1007D000A0F42E1B3F0B2817390778F0AC014E5FB1
:1007E0005F4F2417350748F04E0F5F1F50932501C8
:1007F000409324018193919302C0E0E0F0E0CF01A7
:10080000DF91CF9108950F931F93CF93DF930097BC
:1008100009F48CC0FC0132971382128200912601E8
:10082000109127010115110581F420813181820F7A
:10083000931F20912401309125012817390779F55C
:10084000F0932501E093240171C0D80140E050E00D
:10085000AE17BF0750F412962D913C911397AD013E
:100860002115310509F1D901F3CF9D01DA01338357
:10087000228360817181860F971F8217930769F425
:10088000EC0128813981260F371F2E5F3F4F3183BE
:1008900020838A819B8193838283452B29F4F09363
:1008A0002701E093260142C01396FC93EE93129722
:1008B000ED01499159919E01240F351FE217F3076D
:1008C00071F480819181840F951F029611969C93FB
:1008D0008E938281938113969C938E931297E0E07E
:1008E000F0E0D80112968D919C911397009719F022
:1008F000F8018C01F6CF8D919C9198012E5F3F4FAE
:10090000820F931F20912401309125012817390768
:1009100069F4309729F4109227011092260102C041
:10092000138212821093250100932401DF91CF914D
:100930001F910F91089510E0CDE5D0E004C0FE01B5
:100940000E9468032196CE35D107C9F7F894FFCFEE
:06095000000028018000F8
:00000001FF
